S01800004F62737461636C652041766F696465722E73726563F5
S11300000C9434000C9451000C9451000C94510045
S11300100C9451000C9451000C9451000C94510018
S11300200C9451000C9451000C9451000C94510008
S11300300C9451000C9451000C9451000C945100F8
S11300400C9451000C9451000C9451000C945100E8
S11300500C9451000C9451000C9451000C945100D8
S11300600C9451000C94510011241FBECFEFD8E022
S1130070DEBFCDBF11E0A0E0B1E0E2ECF0E102C0F0
S113008005900D92A239B107D9F722E0A2E9B1E0B7
S113009001C01D92A832B207E1F70E94B9040C9482
S11300A05F080C940000CF93DF931F92CDB7DEB7A7
S11300B0898384B5836084BD84B5806884BD84B538
S11300C0806284BD85B5856085BD8AB183668AB941
S11300D0698170E0762F6627072E000C880B990B38
S11300E00E94EB0520E030E048EC52E40E94410518
S11300F020E030E040E85FE30E94CF0420E030E0FD
S113010040E450E40E94D0040E94BA0567BD6981AE
S113011070E0762F6627072E000C880B990B0E943F
S1130120EB0520E030E048EC52E40E94410520E079
S113013030E040E85FE30E94CF040E94BA0568BD46
S11301400F90DF91CF91089582E10E9453008BB10B
S113015085608BB98BB1857F8BB908958BB1897F0D
S11301608BB98BB1867F8BB908958FE00E945300C1
S11301708BB189608BB98BB1897F8BB92FEF84E305
S11301809CE0215080409040E1F700C000000E94B4
S1130190AE0008958FE00E9453008BB186608BB946
S11301A08BB1867F8BB92FEF84E39CE02150804094
S11301B09040E1F700C000000E94AE0008958FE077
S11301C00E9453008BB18A7F8BB98BB18A608BB943
S11301D02FEF89E698E1215080409040E1F700C07C
S11301E000000E94AE008BB189608BB98BB1897F0E
S11301F08BB92FEF8CEB9FE1215080409040E1F7C9
S113020000C000000E94AE0008950E94EC0764E65E
S113021070E00E940D07BC01990F880B990B0E9496
S1130220EB0520E030E048EC52E40E9441050895DB
S113023024EA30E74DE75FE30E94A0060895CF92D9
S1130240DF92EF92FF920F931F93CF93DF93C62E0B
S1130250D72EE82EF92E022F132FD42FC52F0E944C
S11302609B06882324F00C2D1D2DDE2DCF2D602F11
S1130270712F8D2F9C2FDF91CF911F910F91FF90A4
S1130280EF90DF90CF9008958F929F92AF92BF929C
S1130290EF92FF920F931F93CF93DF93CDB7DEB707
S11302A060970FB6F894DEBF0FBECDBF7C0188E027
S11302B0EAE8F1E0DE01199601900D928A95E1F7E2
S11302C000E010E032C0F701EE0FFF1FEE0FFF1F3A
S11302D0E00FF11FEE0FFF1FEE0FFF1FEE56FE4F54
S11302E080809180A280B38069857A858B859C8586
S11302F0A50194010E941F019B01AC0169877A87C3
S11303008B879C87C501B4010E943C0581110BC0F9
S1130310B801012E000C880B990B0E94EB056D8728
S11303207E878F87988B0F5F1F4F043011055CF217
S113033088E0FE013996DE01119601900D928A95AE
S1130340E1F729813A814B815C816D817E818F81C6
S1130350988560960FB6F894DEBF0FBECDBFDF91CF
S1130360CF911F910F91FF90EF90BF90AF909F900E
S11303708F9008950F931F93CF93DF9382E00E9491
S1130380F303022F132F8FE99FE00197F1F700C0C9
S1130390000080E00E94F303C22FD32F8FE99FE077
S11303A00197F1F700C0000081E00E94F303822F5F
S11303B0932FC031D1053CF08531910524F00031F3
S11303C011050CF040C0C031D10534F085319105E0
S11303D01CF000311105D4F1C031D10534F0853160
S11303E091051CF400311105A4F5C031D10534F098
S11303F0853191051CF40031110574F1C031D1052A
S113040034F4853191051CF00031110544F5C031F7
S1130410D10534F4853191051CF00031110514F136
S1130420C031D10534F4853191051CF40031110536
S1130430E4F46097ECF44597F4F400311105F4F01A
S11304408FEF9FEF1DC080E090E01AC081E090E044
S113045017C082E090E014C083E090E011C084E013
S113046090E00EC085E090E00BC086E090E008C00C
S11304708FEF9FEF05C08FEF9FEF02C087E090E002
S1130480DF91CF911F910F9108954F925F926F92D8
S11304907F928F929F92AF92BF92EF92FF920F93AF
S11304A01F93CF93DF93CDB7DEB728970FB6F89499
S11304B0DEBF0FBECDBF7901880F991F880F991F2A
S11304C08C01040F151F000F111F000F111F0E5672
S11304D01E4FF80180809180A280B3808092200218
S11304E090922102A0922202B0922302CB010E9498
S11304F0440129833A834B835C8349805A806B800F
S11305007C80409218025092190260921A027092F2
S11305101B0226E636E646E65FE3C501B4010E9407
S1130520A0064B015C0120E030E040E05FE3C30142
S1130530B2010E94A0062B013C01B701FF0C880BFD
S1130540990B0E94EB05A30192010E94D0042DECAB
S11305503CEC4CEC5DE30E94A0069B01AC01C501A0
S1130560B4010E94D00460931C0270931D02809316
S11305701E0290931F02F801608371838283938328
S113058028960FB6F894DEBF0FBECDBFDF91CF9192
S11305901F910F91FF90EF90BF90AF909F908F901D
S11305A07F906F905F904F900895CF92DF92EF927B
S11305B0FF920F931F93CF93DF93CDB7DEB72897A6
S11305C00FB6F894DEBF0FBECDBF84B1806184B98D
S11305D085B1806185B900E010E0A3C00E94A40049
S11305E081E00E94F303822F932F4597BCF70E946A
S11305F0AE00809116029091170201968770907850
S1130600992324F40197886F9F6F019690931502A4
S1130610809314020E940501209184013091850188
S113062040918601509187010E943C0518167CF088
S11306300E94EC0783709078992324F401978C6FBF
S11306409F6F0196909313028093120218C08091B9
S11306501602909117020E94440129833A834B8326
S11306605C836D837E838F8398876D817E818F8188
S113067098850E94B3057093130260931202E09070
S11306801602F0901702C0901202D0901302F701E4
S1130690EE0FFF1FEE0FFF1FEC0DFD1DEE0FFF1FF2
S11306A0EE0FFF1FEC5FFE4F6081718182819381A9
S11306B0609324027093250280932602909327026C
S11306C00E94B305E0911402F09115029B01A6016A
S11306D0BF01C7010E944502809114029091150246
S11306E090931702809316026091840170918501A2
S11306F080918601909187010E9418016093840182
S11307007093850180938601909387012FEF81EE8A
S113071094E0215080409040E1F700C000000F5F5A
S11307201F4F8091880190918901081719070CF4D3
S113073055CF85B18F7E85B928960FB6F894DEBF64
S11307400FBECDBFDF91CF911F910F91FF90EF901E
S1130750DF90CF900895CF93DF93CDB7DEB728977E
S11307600FB6F894DEBF0FBECDBF0E94BA010E943F
S1130770440129833A834B835C836D837E838F8317
S113078098876D817E818F8198850E94B3057093CF
S11307901302609312026115710519F40E94A400FA
S11307A0E4CF6130710519F40E94CA00DECF6230D3
S11307B0710519F40E94B500D8CF6330710519F49E
S11307C00E94DF00D2CF0E94AE002FEF8BE792E9A8
S11307D0215080409040E1F700C00000C6CF87B1AF
S11307E0876087B90895AF92BF92CF92DF92EF925C
S11307F0FF920F931F93CF93DF93CDB7DEB761972B
S11308000FB6F894DEBF0FBECDBF898B19821A8252
S11308101B821C821D821E821F82188619861A86DC
S11308201B861C861D861E861F86188A898981114F
S11308300BC088B1816088B965E36A95F1F700005F
S113084088B18E7F88B91BC08989813059F488B1F9
S1130850826088B975E37A95F1F7000088B18D7FDD
S113086088B90DC08989823051F488B1846088B90F
S113087085E38A95F1F7000088B18B7F88B943B18D
S1130880298981E090E0BC0102C0660F771F2A9598
S1130890E2F7842F90E086239723298902C0959557
S11308A087952A95E2F7892B51F317C075E07A955D
S11308B0F1F7000029813A814B815C816D817E8151
S11308C08F819885A1E00E94800729833A834B8316
S11308D05C836D837E838F83988743B1298981E00C
S11308E090E0BC0102C0660F771F2A95E2F7842FBF
S11308F090E086239723298902C0959587952A95A8
S1130900E2F7019799F229813A814B815C816D81EB
S11309107E818F8198850F2EF9E0AF2EF02DB12CBA
S1130920C12CD12CE12CF12C00E010E00E94230713
S113093029873A874B875C876D877E878F87988B5B
S113094029853A854B855C856D857E858F8598895B
S113095061960FB6F894DEBF0FBECDBFDF91CF9185
S11309601F910F91FF90EF90DF90CF90BF90AF90C9
S113097008950E94EF030E94D50284B1806284B975
S113098085B1806285B90E94AB032FEF83ED90E3BC
S1130990215080409040E1F700C00000FFCF505844
S11309A0BB27AA270E94E7040C9461060E94530601
S11309B038F00E945A0620F039F49F3F19F426F4C7
S11309C00C9450060EF4E095E7FB0C944A06E92FCC
S11309D00E94720658F3BA176207730784079507D3
S11309E020F079F4A6F50C9494060EF4E0950B2E01
S11309F0BA2FA02D0B01B90190010C01CA01A0016D
S1130A001124FF27591B99F0593F50F4503E68F1C7
S1130A101A16F040A22F232F342F4427585FF3CF08
S1130A20469537952795A795F0405395C9F77EF4D9
S1130A301F16BA0B620B730B840BBAF09150A1F022
S1130A40FF0FBB1F661F771F881FC2F70EC0BA0FA8
S1130A50621F731F841F48F4879577956795B79530
S1130A60F7959E3F08F0B0CF9395880F08F099272B
S1130A70EE0F9795879508950E94260608F481E065
S1130A8008950E9455050C9461060E945A0658F078
S1130A900E94530640F029F45F3F29F00C944A0663
S1130AA051110C9495060C9450060E94720668F33A
S1130AB09923B1F3552391F3951B550BBB27AA2713
S1130AC062177307840738F09F5F5F4F220F331F4D
S1130AD0441FAA1FA9F335D00E2E3AF0E0E832D015
S1130AE091505040E695001CCAF72BD0FE2F29D018
S1130AF0660F771F881FBB1F261737074807AB07EA
S1130B00B0E809F0BB0B802DBF01FF2793585F4F5E
S1130B103AF09E3F510578F00C944A060C949506E1
S1130B205F3FE4F3983ED4F3869577956795B79540
S1130B30F7959F5FC9F7880F911D9695879597F94B
S1130B400895E1E0660F771F881FBB1F62177307C4
S1130B508407BA0720F0621B730B840BBA0BEE1FD9
S1130B6088F7E09508950E94BA056894B1110C9431
S1130B70950608950E947A0688F09F5798F0B92F39
S1130B809927B751B0F0E1F0660F771F881F991FBE
S1130B901AF0BA95C9F714C0B13091F00E949406C6
S1130BA0B1E008950C949406672F782F8827B85FD6
S1130BB039F0B93FCCF3869577956795B395D9F716
S1130BC03EF490958095709561957F4F8F4F9F4F20
S1130BD00895E89409C097FB3EF49095809570952C
S1130BE061957F4F8F4F9F4F9923A9F0F92F96E975
S1130BF0BB279395F695879577956795B795F111EA
S1130C00F8CFFAF4BB0F11F460FF1BC06F5F7F4F86
S1130C108F4F9F4F16C0882311F096E911C0772398
S1130C2021F09EE8872F762F05C0662371F096E8A1
S1130C30862F70E060E02AF09A95660F771F881F70
S1130C40DAF7880F9695879597F90895990F000814
S1130C50550FAA0BE0E8FEEF16161706E807F9078A
S1130C60C0F012161306E407F50798F0621B730B25
S1130C70840B950B39F40A2661F0232B242B252BA6
S1130C8021F408950A2609F4A140A6958FEF811D49
S1130C90811D089597F99F6780E870E060E00895EA
S1130CA09FEF80EC089500240A9416161706180680
S1130CB00906089500240A9412161306140605065C
S1130CC00895092E0394000C11F4882352F0BB0FED
S1130CD040F4BF2B11F460FF04C06F5F7F4F8F4F50
S1130CE09F4F089557FD9058440F551F59F05F3F8B
S1130CF071F04795880F97FB991F61F09F3F79F03A
S1130D0087950895121613061406551FF2CF4695BB
S1130D10F1DF08C0161617061806991FF1CF86953D
S1130D207105610508940895E894BB276627772721
S1130D30CB0197F908950E94260608F48FEF0895D1
S1130D400E94B3060C9461060E94530638F00E9478
S1130D505A0620F0952311F00C944A060C94500680
S1130D6011240C9495060E94720670F3959FC1F3AA
S1130D70950F50E0551F629FF001729FBB27F00D45
S1130D80B11D639FAA27F00DB11DAA1F649F66279A
S1130D90B00DA11D661F829F2227B00DA11D621FE9
S1130DA0739FB00DA11D621F839FA00D611D221FA3
S1130DB0749F3327A00D611D231F849F600D211D87
S1130DC0822F762F6A2F11249F5750409AF0F1F00A
S1130DD088234AF0EE0FFF1FBB1F661F771F881F73
S1130DE091505040A9F79E3F510580F00C944A065B
S1130DF00C9495065F3FE4F3983ED4F3869577957B
S1130E006795B795F795E7959F5FC1F7FE2B880F18
S1130E10911D9695879597F9089597FB072E16F4DB
S1130E20009407D077FD09D00E948C0707FC05D0F9
S1130E303EF4909581959F4F0895709561957F4FED
S1130E400895689401C0E8948F929F92CF93DF93A2
S1130E500E942F07DF91CF919F908F90089588244F
S1130E609924F401E401B0E49F93AA279A158B0412
S1130E709C04ED05FE05CF05D007A10798F4AD2F1E
S1130E80DC2FCF2FFE2FE92D982C892E982F872F1A
S1130E90762F652F542F432F322F2227B85031F746
S1130EA0BF9127C01B2EBF91BB27220F331F441FA6
S1130EB0551F661F771F881F991F881C991CEE1FDA
S1130EC0FF1FCC1FDD1FAA1FBB1F8A149B04EC0548
S1130ED0FD05CE05DF05A007B10748F08A189B0879
S1130EE0EC09FD09CE09DF09A00BB10B21601A94AE
S1130EF0E1F62EF49401AF01BE01CD01000C08957A
S1130F000024A7FD00942A0F301D401D501D601DB4
S1130F10701D801D901D0895AA1BBB1B51E107C0C5
S1130F20AA1FBB1FA617B70710F0A61BB70B881F75
S1130F30991F5A95A9F780959095BC01CD01089504
S1130F408F929F92AF92BF92CF92DF92EF92FF92D5
S1130F50CF93DF93EC01688179818A819B8161154C
S1130F6071058105910521F464E279ED8BE597E043
S1130F702DE133EF41E050E00E94FC0749015A01A2
S1130F809B01AC01A7EAB1E40E941B086B017C0140
S1130F90ACEEB4EFA50194010E942908DC01CB0159
S1130FA08C0D9D1DAE1DBF1DB7FF03C00197A10988
S1130FB0B04888839983AA83BB839F77DF91CF91BD
S1130FC0FF90EF90DF90CF90BF90AF909F908F9065
S1130FD008950E94A007089580E091E00E94A00770
S1130FE00895A0E0B0E08093000190930101A093E4
S1130FF00201B09303010895052E97FB1EF400949B
S11310000E94130857FD07D00E942E0807FC03D046
S11310104EF40C94130850954095309521953F4F0C
S11310204F4F5F4F089590958095709561957F4FD0
S11310308F4F9F4F08950E945008A59F900DB49F15
S1131040900DA49F800D911D11240895B7FF0C9459
S11310501B080E941B08821B930B0895A1E21A2E01
S1131060AA1BBB1BFD010DC0AA1FBB1FEE1FFF1F48
S1131070A217B307E407F50720F0A21BB30BE40B98
S1131080F50B661F771F881F991F1A9469F76095DF
S11310907095809590959B01AC01BD01CF01089599
S11310A0A29FB001B39FC001A39F700D811D1124A5
S11310B0911DB29F700D811D1124911D0895F89406
S10510C0FFCF5C
S11310C20100000000002041000000400000004038
S11310D2000020C1000000C000002041000020C127
S11310E2000020C1000020C1000020410000204176
S11310F2000000C0000020C100002041000020C107
S1131102000000C000000040000020C10000204197
S1131112000020C100002041000020C1000020C1C5
S1131122000000C0000020C1000020C100002041D6
S1131132000000C0000020C1000020C1000020C146
S1131142000020410000803FC80000401CC600008F
S105115280BF58
S9030000FC
