:100000000C9434000C9451000C9451000C94510049
:100010000C9451000C9451000C9451000C9451001C
:100020000C9451000C9451000C9451000C9451000C
:100030000C9451000C9451000C9451000C945100FC
:100040000C9451000C9451000C9451000C945100EC
:100050000C9451000C9451000C9451000C945100DC
:100060000C9451000C94510011241FBECFEFD8E026
:10007000DEBFCDBF11E0A0E0B1E0E4EAF4E002C0F1
:1000800005900D92A030B107D9F721E0A0E0B1E0D2
:1000900001C01D92A030B207E1F70E94AE000C949F
:1000A00050020C940000CF93DF931F92CDB7DEB7C0
:1000B000898384B5836084BD84B5806884BD84B53C
:1000C000806284BD85B5856085BD8AB183668AB945
:1000D000698170E0762F6627072E000C880B990B3C
:1000E0000E94C40120E030E048EC52E40E9421016B
:1000F00020E030E040E85FE30E94B40020E030E020
:1001000040E450E40E94B5000E94930167BD6981FC
:1001100070E0762F6627072E000C880B990B0E9443
:10012000C40120E030E048EC52E40E94210120E0CC
:1001300030E040E85FE30E94B4000E94930168BD94
:100140000F90DF91CF91089582E10E9453008BB10F
:1001500085608BB98BB1857F8BB9089584E10E944E
:1001600053000E94A400FACF5058BB27AA270E9430
:10017000CC000C9416020E94080238F00E940F0274
:1001800020F039F49F3F19F426F40C9405020EF484
:10019000E095E7FB0C94FF01E92F0E94270258F33A
:1001A000BA17620773078407950720F079F4A6F55C
:1001B0000C9449020EF4E0950B2EBA2FA02D0B01E2
:1001C000B90190010C01CA01A0011124FF27591B9C
:1001D00099F0593F50F4503E68F11A16F040A22FA2
:1001E000232F342F4427585FF3CF46953795279513
:1001F000A795F0405395C9F77EF41F16BA0B620B12
:10020000730B840BBAF09150A1F0FF0FBB1F661F58
:10021000771F881FC2F70EC0BA0F621F731F841F9B
:1002200048F4879577956795B795F7959E3F08F0C1
:10023000B0CF9395880F08F09927EE0F9795879583
:1002400008950E9435010C9416020E940F0258F086
:100250000E94080240F029F45F3F29F00C94FF014E
:1002600051110C944A020C9405020E94270268F373
:100270009923B1F3552391F3951B550BBB27AA275F
:1002800062177307840738F09F5F5F4F220F331F99
:10029000441FAA1FA9F335D00E2E3AF0E0E832D061
:1002A00091505040E695001CCAF72BD0FE2F29D064
:1002B000660F771F881FBB1F261737074807AB0736
:1002C000B0E809F0BB0B802DBF01FF2793585F4FAB
:1002D0003AF09E3F510578F00C94FF010C944A02CD
:1002E0005F3FE4F3983ED4F3869577956795B7958D
:1002F000F7959F5FC9F7880F911D9695879597F998
:100300000895E1E0660F771F881FBB1F6217730710
:100310008407BA0720F0621B730B840BBA0BEE1F25
:1003200088F7E09508950E942F0288F09F5798F073
:10033000B92F9927B751B0F0E1F0660F771F881FEA
:10034000991F1AF0BA95C9F714C0B13091F00E9404
:100350004902B1E008950C944902672F782F88274D
:10036000B85F39F0B93FCCF3869577956795B3952B
:10037000D9F73EF490958095709561957F4F8F4F9A
:100380009F4F0895E89409C097FB3EF4909580959F
:10039000709561957F4F8F4F9F4F9923A9F0F92F4B
:1003A00096E9BB279395F695879577956795B795C9
:1003B000F111F8CFFAF4BB0F11F460FF1BC06F5FAF
:1003C0007F4F8F4F9F4F16C0882311F096E911C0C1
:1003D000772321F09EE8872F762F05C0662371F0E2
:1003E00096E8862F70E060E02AF09A95660F771FF6
:1003F000881FDAF7880F9695879597F9089597F9EA
:100400009F6780E870E060E008959FEF80EC0895BA
:1004100000240A94161617061806090608950024E3
:100420000A9412161306140605060895092E03945D
:10043000000C11F4882352F0BB0F40F4BF2B11F4D1
:1004400060FF04C06F5F7F4F8F4F9F4F089557FD30
:100450009058440F551F59F05F3F71F04795880F32
:1004600097FB991F61F09F3F79F0879508951216C9
:1004700013061406551FF2CF4695F1DF08C0161675
:1004800017061806991FF1CF869571056105089426
:100490000895E894BB2766277727CB0197F908953D
:0404A000F894FFCFFE
:00000001FF
